{
  "contractName": "ListenerRole",
  "abi": [
    {
      "inputs": [],
      "payable": false,
      "stateMutability": "nonpayable",
      "type": "constructor"
    },
    {
      "anonymous": false,
      "inputs": [
        {
          "indexed": true,
          "name": "account",
          "type": "address"
        }
      ],
      "name": "ListenerAdded",
      "type": "event"
    },
    {
      "anonymous": false,
      "inputs": [
        {
          "indexed": true,
          "name": "account",
          "type": "address"
        }
      ],
      "name": "ListenerRemoved",
      "type": "event"
    },
    {
      "constant": true,
      "inputs": [
        {
          "name": "account",
          "type": "address"
        }
      ],
      "name": "isListener",
      "outputs": [
        {
          "name": "",
          "type": "bool"
        }
      ],
      "payable": false,
      "stateMutability": "view",
      "type": "function"
    },
    {
      "constant": false,
      "inputs": [
        {
          "name": "account",
          "type": "address"
        }
      ],
      "name": "addListener",
      "outputs": [],
      "payable": false,
      "stateMutability": "nonpayable",
      "type": "function"
    },
    {
      "constant": false,
      "inputs": [],
      "name": "renounceListener",
      "outputs": [],
      "payable": false,
      "stateMutability": "nonpayable",
      "type": "function"
    }
  ],
  "bytecode": "0x608060405234801561001057600080fd5b506100293361002e640100000000026401000000009004565b61039e565b61004f816000610095640100000000026103c2179091906401000000009004565b8073ffffffffffffffffffffffffffffffffffffffff167ff4b5d7970f8d26d7e8c6b74e8ffad0e1b0f67bc7f92238bd7efd485731eceafa60405160405180910390a250565b80600073ffffffffffffffffffffffffffffffffffffffff168173ffffffffffffffffffffffffffffffffffffffff1614151515610161576040517f08c379a00000000000000000000000000000000000000000000000000000000081526004018080602001828103825260218152602001807f46756e6374696f6e2072657175697265732061206e6f6e2d302061646472657381526020017f730000000000000000000000000000000000000000000000000000000000000081525060400191505060405180910390fd5b828261017c8282610278640100000000026401000000009004565b151515610217576040517f08c379a00000000000000000000000000000000000000000000000000000000081526004018080602001828103825260268152602001807f46756e6374696f6e207265717569726573206164647265737320746f2068617681526020017f6520726f6c65000000000000000000000000000000000000000000000000000081525060400191505060405180910390fd5b60018560000160008673ffffffffffffffffffffffffffffffffffffffff1673ffffffffffffffffffffffffffffffffffffffff16815260200190815260200160002060006101000a81548160ff0219169083151502179055505050505050565b600081600073ffffffffffffffffffffffffffffffffffffffff168173ffffffffffffffffffffffffffffffffffffffff1614151515610346576040517f08c379a00000000000000000000000000000000000000000000000000000000081526004018080602001828103825260218152602001807f46756e6374696f6e2072657175697265732061206e6f6e2d302061646472657381526020017f730000000000000000000000000000000000000000000000000000000000000081525060400191505060405180910390fd5b8360000160008473ffffffffffffffffffffffffffffffffffffffff1673ffffffffffffffffffffffffffffffffffffffff16815260200190815260200160002060009054906101000a900460ff1691505092915050565b610796806103ad6000396000f300608060405260043610610057576000357c0100000000000000000000000000000000000000000000000000000000900463ffffffff16806331b2c0891461005c578063d5b50252146100b7578063e2a4e416146100fa575b600080fd5b34801561006857600080fd5b5061009d600480360381019080803573ffffffffffffffffffffffffffffffffffffffff169060200190929190505050610111565b604051808215151515815260200191505060405180910390f35b3480156100c357600080fd5b506100f8600480360381019080803573ffffffffffffffffffffffffffffffffffffffff16906020019092919050505061012e565b005b34801561010657600080fd5b5061010f6101dd565b005b60006101278260006101e890919063ffffffff16565b9050919050565b61013733610111565b15156101d1576040517f08c379a00000000000000000000000000000000000000000000000000000000081526004018080602001828103825260258152602001807f4f6e6c79206c697374656e657273206d61792063616c6c20746869732066756e81526020017f6374696f6e00000000000000000000000000000000000000000000000000000081525060400191505060405180910390fd5b6101da8161030e565b50565b6101e633610368565b565b600081600073ffffffffffffffffffffffffffffffffffffffff168173ffffffffffffffffffffffffffffffffffffffff16141515156102b6576040517f08c379a00000000000000000000000000000000000000000000000000000000081526004018080602001828103825260218152602001807f46756e6374696f6e2072657175697265732061206e6f6e2d302061646472657381526020017f730000000000000000000000000000000000000000000000000000000000000081525060400191505060405180910390fd5b8360000160008473ffffffffffffffffffffffffffffffffffffffff1673ffffffffffffffffffffffffffffffffffffffff16815260200190815260200160002060009054906101000a900460ff1691505092915050565b6103228160006103c290919063ffffffff16565b8073ffffffffffffffffffffffffffffffffffffffff167ff4b5d7970f8d26d7e8c6b74e8ffad0e1b0f67bc7f92238bd7efd485731eceafa60405160405180910390a250565b61037c81600061059690919063ffffffff16565b8073ffffffffffffffffffffffffffffffffffffffff167ff8719b53666b7bc68a4c9d081dccc309d69026d56bdeaa8518620d6ff831d18960405160405180910390a250565b80600073ffffffffffffffffffffffffffffffffffffffff168173ffffffffffffffffffffffffffffffffffffffff161415151561048e576040517f08c379a00000000000000000000000000000000000000000000000000000000081526004018080602001828103825260218152602001807f46756e6374696f6e2072657175697265732061206e6f6e2d302061646472657381526020017f730000000000000000000000000000000000000000000000000000000000000081525060400191505060405180910390fd5b828261049a82826101e8565b151515610535576040517f08c379a00000000000000000000000000000000000000000000000000000000081526004018080602001828103825260268152602001807f46756e6374696f6e207265717569726573206164647265737320746f2068617681526020017f6520726f6c65000000000000000000000000000000000000000000000000000081525060400191505060405180910390fd5b60018560000160008673ffffffffffffffffffffffffffffffffffffffff1673ffffffffffffffffffffffffffffffffffffffff16815260200190815260200160002060006101000a81548160ff0219169083151502179055505050505050565b80600073ffffffffffffffffffffffffffffffffffffffff168173ffffffffffffffffffffffffffffffffffffffff1614151515610662576040517f08c379a00000000000000000000000000000000000000000000000000000000081526004018080602001828103825260218152602001807f46756e6374696f6e2072657175697265732061206e6f6e2d302061646472657381526020017f730000000000000000000000000000000000000000000000000000000000000081525060400191505060405180910390fd5b828261066e82826101e8565b151515610709576040517f08c379a00000000000000000000000000000000000000000000000000000000081526004018080602001828103825260268152602001807f46756e6374696f6e207265717569726573206164647265737320746f2068617681526020017f6520726f6c65000000000000000000000000000000000000000000000000000081525060400191505060405180910390fd5b60008560000160008673ffffffffffffffffffffffffffffffffffffffff1673ffffffffffffffffffffffffffffffffffffffff16815260200190815260200160002060006101000a81548160ff02191690831515021790555050505050505600a165627a7a72305820ced14003c38e7e7f52338e9d8eb6e8ede2759ea13bfb71cbd52310734cf539b50029",
  "source": "pragma solidity ^0.4.24;\n\n// Import the library 'Roles'\nimport \"./Roles.sol\";\n\n// Define a contract 'ListenerRole' to manage this role - add, remove, check\ncontract ListenerRole {\n  using Roles for Roles.Role;\n\n  // Define 2 events, one for Adding, and other for Removing\n  event ListenerAdded(address indexed account);\n  event ListenerRemoved(address indexed account);\n\n  // Define a struct 'listeners' by inheriting from 'Roles' library, struct Role\n  Roles.Role private listeners;\n\n  // In the constructor make the address that deploys this contract the 1st farmer\n  constructor() public {\n    _addListener(msg.sender);\n  }\n\n  // Define a modifier that checks to see if msg.sender has the appropriate role\n  modifier onlyListener() {\n    require(isListener(msg.sender),'Only listeners may call this function');\n    _;\n  }\n\n  // Define a function 'isListener' to check this role\n  function isListener(address account) public view returns (bool) {\n    return listeners.has(account);\n  }\n\n  // Define a function 'addListener' that adds this role\n  function addListener(address account) public onlyListener {\n    _addListener(account);\n  }\n\n  // Define a function 'renounceListener' to renounce this role\n  function renounceListener() public {\n    _removeListener(msg.sender);\n  }\n\n  // Define an internal function '_addListener' to add this role, called by 'addListener'\n  function _addListener(address account) internal {\n    listeners.add(account);\n    emit ListenerAdded(account);\n  }\n\n  // Define an internal function '_removeListener' to remove this role, called by 'removeListener'\n  function _removeListener(address account) internal {\n    listeners.remove(account);\n    emit ListenerRemoved(account);\n  }\n}",
  "sourcePath": "/Users/Narnia/Desktop/UdacityBlockchainTerm2/nd1309-Project-6b-Example-Template/project-6/contracts/musicaccesscontrol/ListenerRole.sol",
  "compiler": {
    "name": "solc",
    "version": "0.4.26+commit.4563c3fc.Emscripten.clang"
  },
  "schemaVersion": "3.0.17",
  "updatedAt": "2019-11-15T22:20:17.076Z",
  "networkType": "ethereum",
  "devdoc": {
    "methods": {}
  },
  "userdoc": {
    "methods": {}
  }
}