{
  "contractName": "MusicianRole",
  "abi": [
    {
      "inputs": [],
      "payable": false,
      "stateMutability": "nonpayable",
      "type": "constructor"
    },
    {
      "anonymous": false,
      "inputs": [
        {
          "indexed": true,
          "name": "account",
          "type": "address"
        }
      ],
      "name": "MusicianAdded",
      "type": "event"
    },
    {
      "anonymous": false,
      "inputs": [
        {
          "indexed": true,
          "name": "account",
          "type": "address"
        }
      ],
      "name": "MusicianRemoved",
      "type": "event"
    },
    {
      "constant": true,
      "inputs": [
        {
          "name": "account",
          "type": "address"
        }
      ],
      "name": "isMusician",
      "outputs": [
        {
          "name": "",
          "type": "bool"
        }
      ],
      "payable": false,
      "stateMutability": "view",
      "type": "function"
    },
    {
      "constant": false,
      "inputs": [
        {
          "name": "account",
          "type": "address"
        }
      ],
      "name": "addMusician",
      "outputs": [],
      "payable": false,
      "stateMutability": "nonpayable",
      "type": "function"
    },
    {
      "constant": false,
      "inputs": [],
      "name": "renounceMusician",
      "outputs": [],
      "payable": false,
      "stateMutability": "nonpayable",
      "type": "function"
    }
  ],
  "bytecode": "0x608060405234801561001057600080fd5b506100293361002e640100000000026401000000009004565b61039e565b61004f81600061009564010000000002610596179091906401000000009004565b8073ffffffffffffffffffffffffffffffffffffffff167f66ee4d248634cd44ce799c56dc34e29539eda894842fab4be2c63ce9682e970c60405160405180910390a250565b80600073ffffffffffffffffffffffffffffffffffffffff168173ffffffffffffffffffffffffffffffffffffffff1614151515610161576040517f08c379a00000000000000000000000000000000000000000000000000000000081526004018080602001828103825260218152602001807f46756e6374696f6e2072657175697265732061206e6f6e2d302061646472657381526020017f730000000000000000000000000000000000000000000000000000000000000081525060400191505060405180910390fd5b828261017c8282610278640100000000026401000000009004565b151515610217576040517f08c379a00000000000000000000000000000000000000000000000000000000081526004018080602001828103825260268152602001807f46756e6374696f6e207265717569726573206164647265737320746f2068617681526020017f6520726f6c65000000000000000000000000000000000000000000000000000081525060400191505060405180910390fd5b60018560000160008673ffffffffffffffffffffffffffffffffffffffff1673ffffffffffffffffffffffffffffffffffffffff16815260200190815260200160002060006101000a81548160ff0219169083151502179055505050505050565b600081600073ffffffffffffffffffffffffffffffffffffffff168173ffffffffffffffffffffffffffffffffffffffff1614151515610346576040517f08c379a00000000000000000000000000000000000000000000000000000000081526004018080602001828103825260218152602001807f46756e6374696f6e2072657175697265732061206e6f6e2d302061646472657381526020017f730000000000000000000000000000000000000000000000000000000000000081525060400191505060405180910390fd5b8360000160008473ffffffffffffffffffffffffffffffffffffffff1673ffffffffffffffffffffffffffffffffffffffff16815260200190815260200160002060009054906101000a900460ff1691505092915050565b610796806103ad6000396000f300608060405260043610610057576000357c0100000000000000000000000000000000000000000000000000000000900463ffffffff1680631450b6c51461005c578063622c37f9146100b7578063dc808010146100ce575b600080fd5b34801561006857600080fd5b5061009d600480360381019080803573ffffffffffffffffffffffffffffffffffffffff169060200190929190505050610111565b604051808215151515815260200191505060405180910390f35b3480156100c357600080fd5b506100cc61012e565b005b3480156100da57600080fd5b5061010f600480360381019080803573ffffffffffffffffffffffffffffffffffffffff169060200190929190505050610139565b005b60006101278260006101e890919063ffffffff16565b9050919050565b6101373361030e565b565b61014233610111565b15156101dc576040517f08c379a00000000000000000000000000000000000000000000000000000000081526004018080602001828103825260258152602001807f4f6e6c79206d7573696369616e73206d61792063616c6c20746869732066756e81526020017f6374696f6e00000000000000000000000000000000000000000000000000000081525060400191505060405180910390fd5b6101e581610368565b50565b600081600073ffffffffffffffffffffffffffffffffffffffff168173ffffffffffffffffffffffffffffffffffffffff16141515156102b6576040517f08c379a00000000000000000000000000000000000000000000000000000000081526004018080602001828103825260218152602001807f46756e6374696f6e2072657175697265732061206e6f6e2d302061646472657381526020017f730000000000000000000000000000000000000000000000000000000000000081525060400191505060405180910390fd5b8360000160008473ffffffffffffffffffffffffffffffffffffffff1673ffffffffffffffffffffffffffffffffffffffff16815260200190815260200160002060009054906101000a900460ff1691505092915050565b6103228160006103c290919063ffffffff16565b8073ffffffffffffffffffffffffffffffffffffffff167f84bb5b422ed2e997cf11ed02acdfc06decb11ad55b8033166c72b426fa05908360405160405180910390a250565b61037c81600061059690919063ffffffff16565b8073ffffffffffffffffffffffffffffffffffffffff167f66ee4d248634cd44ce799c56dc34e29539eda894842fab4be2c63ce9682e970c60405160405180910390a250565b80600073ffffffffffffffffffffffffffffffffffffffff168173ffffffffffffffffffffffffffffffffffffffff161415151561048e576040517f08c379a00000000000000000000000000000000000000000000000000000000081526004018080602001828103825260218152602001807f46756e6374696f6e2072657175697265732061206e6f6e2d302061646472657381526020017f730000000000000000000000000000000000000000000000000000000000000081525060400191505060405180910390fd5b828261049a82826101e8565b151515610535576040517f08c379a00000000000000000000000000000000000000000000000000000000081526004018080602001828103825260268152602001807f46756e6374696f6e207265717569726573206164647265737320746f2068617681526020017f6520726f6c65000000000000000000000000000000000000000000000000000081525060400191505060405180910390fd5b60008560000160008673ffffffffffffffffffffffffffffffffffffffff1673ffffffffffffffffffffffffffffffffffffffff16815260200190815260200160002060006101000a81548160ff0219169083151502179055505050505050565b80600073ffffffffffffffffffffffffffffffffffffffff168173ffffffffffffffffffffffffffffffffffffffff1614151515610662576040517f08c379a00000000000000000000000000000000000000000000000000000000081526004018080602001828103825260218152602001807f46756e6374696f6e2072657175697265732061206e6f6e2d302061646472657381526020017f730000000000000000000000000000000000000000000000000000000000000081525060400191505060405180910390fd5b828261066e82826101e8565b151515610709576040517f08c379a00000000000000000000000000000000000000000000000000000000081526004018080602001828103825260268152602001807f46756e6374696f6e207265717569726573206164647265737320746f2068617681526020017f6520726f6c65000000000000000000000000000000000000000000000000000081525060400191505060405180910390fd5b60018560000160008673ffffffffffffffffffffffffffffffffffffffff1673ffffffffffffffffffffffffffffffffffffffff16815260200190815260200160002060006101000a81548160ff02191690831515021790555050505050505600a165627a7a72305820ff3822d949ee2deadea268a10df2b2843dab2e6343e6081130930d8ebfabdad90029",
  "source": "pragma solidity ^0.4.24;\n\n// Import the library 'Roles'\nimport \"./Roles.sol\";\n\n// Define a contract 'MusicianRole' to manage this role - add, remove, check\ncontract MusicianRole {\n  using Roles for Roles.Role;\n\n  // Define 2 events, one for Adding, and other for Removing\n  event MusicianAdded(address indexed account);\n  event MusicianRemoved(address indexed account);\n\n  // Define a struct 'musicians' by inheriting from 'Roles' library, struct Role\n  Roles.Role private musicians;\n\n  // In the constructor make the address that deploys this contract the 1st farmer\n  constructor() public {\n    _addMusician(msg.sender);\n  }\n\n  // Define a modifier that checks to see if msg.sender has the appropriate role\n  modifier onlyMusician() {\n    require(isMusician(msg.sender),'Only musicians may call this function');\n    _;\n  }\n\n  // Define a function 'isMusician' to check this role\n  function isMusician(address account) public view returns (bool) {\n    return musicians.has(account);\n  }\n\n  // Define a function 'addMusician' that adds this role\n  function addMusician(address account) public onlyMusician {\n    _addMusician(account);\n  }\n\n  // Define a function 'renounceMusician' to renounce this role\n  function renounceMusician() public {\n    _removeMusician(msg.sender);\n  }\n\n  // Define an internal function '_addMusician' to add this role, called by 'addMusician'\n  function _addMusician(address account) internal {\n    musicians.add(account);\n    emit MusicianAdded(account);\n  }\n\n  // Define an internal function '_removeMusician' to remove this role, called by 'removeMusician'\n  function _removeMusician(address account) internal {\n    musicians.remove(account);\n    emit MusicianRemoved(account);\n  }\n}",
  "sourcePath": "/Users/Narnia/Desktop/UdacityBlockchainTerm2/nd1309-Project-6b-Example-Template/project-6/contracts/musicaccesscontrol/MusicianRole.sol",
  "compiler": {
    "name": "solc",
    "version": "0.4.26+commit.4563c3fc.Emscripten.clang"
  },
  "schemaVersion": "3.0.17",
  "updatedAt": "2019-11-15T22:20:17.067Z",
  "networkType": "ethereum",
  "devdoc": {
    "methods": {}
  },
  "userdoc": {
    "methods": {}
  }
}