{
  "contractName": "ProducerRole",
  "abi": [
    {
      "inputs": [],
      "payable": false,
      "stateMutability": "nonpayable",
      "type": "constructor"
    },
    {
      "anonymous": false,
      "inputs": [
        {
          "indexed": true,
          "name": "account",
          "type": "address"
        }
      ],
      "name": "ProducerAdded",
      "type": "event"
    },
    {
      "anonymous": false,
      "inputs": [
        {
          "indexed": true,
          "name": "account",
          "type": "address"
        }
      ],
      "name": "ProducerRemoved",
      "type": "event"
    },
    {
      "constant": true,
      "inputs": [
        {
          "name": "account",
          "type": "address"
        }
      ],
      "name": "isProducer",
      "outputs": [
        {
          "name": "",
          "type": "bool"
        }
      ],
      "payable": false,
      "stateMutability": "view",
      "type": "function"
    },
    {
      "constant": false,
      "inputs": [
        {
          "name": "account",
          "type": "address"
        }
      ],
      "name": "addProducer",
      "outputs": [],
      "payable": false,
      "stateMutability": "nonpayable",
      "type": "function"
    },
    {
      "constant": false,
      "inputs": [],
      "name": "renounceProducer",
      "outputs": [],
      "payable": false,
      "stateMutability": "nonpayable",
      "type": "function"
    }
  ],
  "bytecode": "0x608060405234801561001057600080fd5b506100293361002e640100000000026401000000009004565b61039e565b61004f816000610095640100000000026103c2179091906401000000009004565b8073ffffffffffffffffffffffffffffffffffffffff167f2977383b0207d39ef14220620b6cf3e6c9b6e78592af90baeef6614ed2fcd2c660405160405180910390a250565b80600073ffffffffffffffffffffffffffffffffffffffff168173ffffffffffffffffffffffffffffffffffffffff1614151515610161576040517f08c379a00000000000000000000000000000000000000000000000000000000081526004018080602001828103825260218152602001807f46756e6374696f6e2072657175697265732061206e6f6e2d302061646472657381526020017f730000000000000000000000000000000000000000000000000000000000000081525060400191505060405180910390fd5b828261017c8282610278640100000000026401000000009004565b151515610217576040517f08c379a00000000000000000000000000000000000000000000000000000000081526004018080602001828103825260268152602001807f46756e6374696f6e207265717569726573206164647265737320746f2068617681526020017f6520726f6c65000000000000000000000000000000000000000000000000000081525060400191505060405180910390fd5b60018560000160008673ffffffffffffffffffffffffffffffffffffffff1673ffffffffffffffffffffffffffffffffffffffff16815260200190815260200160002060006101000a81548160ff0219169083151502179055505050505050565b600081600073ffffffffffffffffffffffffffffffffffffffff168173ffffffffffffffffffffffffffffffffffffffff1614151515610346576040517f08c379a00000000000000000000000000000000000000000000000000000000081526004018080602001828103825260218152602001807f46756e6374696f6e2072657175697265732061206e6f6e2d302061646472657381526020017f730000000000000000000000000000000000000000000000000000000000000081525060400191505060405180910390fd5b8360000160008473ffffffffffffffffffffffffffffffffffffffff1673ffffffffffffffffffffffffffffffffffffffff16815260200190815260200160002060009054906101000a900460ff1691505092915050565b610796806103ad6000396000f300608060405260043610610057576000357c0100000000000000000000000000000000000000000000000000000000900463ffffffff168063ddf801661461005c578063f55210221461009f578063f9b867d8146100fa575b600080fd5b34801561006857600080fd5b5061009d600480360381019080803573ffffffffffffffffffffffffffffffffffffffff169060200190929190505050610111565b005b3480156100ab57600080fd5b506100e0600480360381019080803573ffffffffffffffffffffffffffffffffffffffff1690602001909291905050506101c0565b604051808215151515815260200191505060405180910390f35b34801561010657600080fd5b5061010f6101dd565b005b61011a336101c0565b15156101b4576040517f08c379a00000000000000000000000000000000000000000000000000000000081526004018080602001828103825260258152602001807f4f6e6c792070726f647563657273206d61792063616c6c20746869732066756e81526020017f6374696f6e00000000000000000000000000000000000000000000000000000081525060400191505060405180910390fd5b6101bd816101e8565b50565b60006101d682600061024290919063ffffffff16565b9050919050565b6101e633610368565b565b6101fc8160006103c290919063ffffffff16565b8073ffffffffffffffffffffffffffffffffffffffff167f2977383b0207d39ef14220620b6cf3e6c9b6e78592af90baeef6614ed2fcd2c660405160405180910390a250565b600081600073ffffffffffffffffffffffffffffffffffffffff168173ffffffffffffffffffffffffffffffffffffffff1614151515610310576040517f08c379a00000000000000000000000000000000000000000000000000000000081526004018080602001828103825260218152602001807f46756e6374696f6e2072657175697265732061206e6f6e2d302061646472657381526020017f730000000000000000000000000000000000000000000000000000000000000081525060400191505060405180910390fd5b8360000160008473ffffffffffffffffffffffffffffffffffffffff1673ffffffffffffffffffffffffffffffffffffffff16815260200190815260200160002060009054906101000a900460ff1691505092915050565b61037c81600061059690919063ffffffff16565b8073ffffffffffffffffffffffffffffffffffffffff167fb78e9906c5bae930ccf756a5214c9855b1782f0eb30f9566de2384f034af48f360405160405180910390a250565b80600073ffffffffffffffffffffffffffffffffffffffff168173ffffffffffffffffffffffffffffffffffffffff161415151561048e576040517f08c379a00000000000000000000000000000000000000000000000000000000081526004018080602001828103825260218152602001807f46756e6374696f6e2072657175697265732061206e6f6e2d302061646472657381526020017f730000000000000000000000000000000000000000000000000000000000000081525060400191505060405180910390fd5b828261049a8282610242565b151515610535576040517f08c379a00000000000000000000000000000000000000000000000000000000081526004018080602001828103825260268152602001807f46756e6374696f6e207265717569726573206164647265737320746f2068617681526020017f6520726f6c65000000000000000000000000000000000000000000000000000081525060400191505060405180910390fd5b60018560000160008673ffffffffffffffffffffffffffffffffffffffff1673ffffffffffffffffffffffffffffffffffffffff16815260200190815260200160002060006101000a81548160ff0219169083151502179055505050505050565b80600073ffffffffffffffffffffffffffffffffffffffff168173ffffffffffffffffffffffffffffffffffffffff1614151515610662576040517f08c379a00000000000000000000000000000000000000000000000000000000081526004018080602001828103825260218152602001807f46756e6374696f6e2072657175697265732061206e6f6e2d302061646472657381526020017f730000000000000000000000000000000000000000000000000000000000000081525060400191505060405180910390fd5b828261066e8282610242565b151515610709576040517f08c379a00000000000000000000000000000000000000000000000000000000081526004018080602001828103825260268152602001807f46756e6374696f6e207265717569726573206164647265737320746f2068617681526020017f6520726f6c65000000000000000000000000000000000000000000000000000081525060400191505060405180910390fd5b60008560000160008673ffffffffffffffffffffffffffffffffffffffff1673ffffffffffffffffffffffffffffffffffffffff16815260200190815260200160002060006101000a81548160ff02191690831515021790555050505050505600a165627a7a72305820087e7e5b6ea17d12ed9ee379adf9c9c470e6581a92de96f361721f1da2b0704f0029",
  "source": "pragma solidity ^0.4.24;\n\n// Import the library 'Roles'\nimport \"./Roles.sol\";\n\n// Define a contract 'ProducerRole' to manage this role - add, remove, check\ncontract ProducerRole {\n  using Roles for Roles.Role;\n\n  // Define 2 events, one for Adding, and other for Removing\n  event ProducerAdded(address indexed account);\n  event ProducerRemoved(address indexed account);\n\n  // Define a struct 'producers' by inheriting from 'Roles' library, struct Role\n  Roles.Role private producers;\n\n  // In the constructor make the address that deploys this contract the 1st farmer\n  constructor() public {\n    _addProducer(msg.sender);\n  }\n\n  // Define a modifier that checks to see if msg.sender has the appropriate role\n  modifier onlyProducer() {\n    require(isProducer(msg.sender),'Only producers may call this function');\n    _;\n  }\n\n  // Define a function 'isProducer' to check this role\n  function isProducer(address account) public view returns (bool) {\n    return producers.has(account);\n  }\n\n  // Define a function 'addProducer' that adds this role\n  function addProducer(address account) public onlyProducer {\n    _addProducer(account);\n  }\n\n  // Define a function 'renounceProducer' to renounce this role\n  function renounceProducer() public {\n    _removeProducer(msg.sender);\n  }\n\n  // Define an internal function '_addProducer' to add this role, called by 'addProducer'\n  function _addProducer(address account) internal {\n    producers.add(account);\n    emit ProducerAdded(account);\n  }\n\n  // Define an internal function '_removeProducer' to remove this role, called by 'removeProducer'\n  function _removeProducer(address account) internal {\n    producers.remove(account);\n    emit ProducerRemoved(account);\n  }\n}",
  "sourcePath": "/Users/Narnia/Desktop/UdacityBlockchainTerm2/nd1309-Project-6b-Example-Template/project-6/contracts/musicaccesscontrol/ProducerRole.sol",
  "compiler": {
    "name": "solc",
    "version": "0.4.26+commit.4563c3fc.Emscripten.clang"
  },
  "schemaVersion": "3.0.17",
  "updatedAt": "2019-11-15T22:20:17.069Z",
  "networkType": "ethereum",
  "devdoc": {
    "methods": {}
  },
  "userdoc": {
    "methods": {}
  }
}