{
  "contractName": "SupplyChain",
  "abi": [
    {
      "constant": true,
      "inputs": [
        {
          "name": "account",
          "type": "address"
        }
      ],
      "name": "isMusician",
      "outputs": [
        {
          "name": "",
          "type": "bool"
        }
      ],
      "payable": false,
      "stateMutability": "view",
      "type": "function"
    },
    {
      "constant": true,
      "inputs": [
        {
          "name": "account",
          "type": "address"
        }
      ],
      "name": "isListener",
      "outputs": [
        {
          "name": "",
          "type": "bool"
        }
      ],
      "payable": false,
      "stateMutability": "view",
      "type": "function"
    },
    {
      "constant": false,
      "inputs": [],
      "name": "renounceMusician",
      "outputs": [],
      "payable": false,
      "stateMutability": "nonpayable",
      "type": "function"
    },
    {
      "constant": false,
      "inputs": [],
      "name": "renounceDistributor",
      "outputs": [],
      "payable": false,
      "stateMutability": "nonpayable",
      "type": "function"
    },
    {
      "constant": false,
      "inputs": [],
      "name": "renounceOwnership",
      "outputs": [],
      "payable": false,
      "stateMutability": "nonpayable",
      "type": "function"
    },
    {
      "constant": false,
      "inputs": [
        {
          "name": "account",
          "type": "address"
        }
      ],
      "name": "addDistributor",
      "outputs": [],
      "payable": false,
      "stateMutability": "nonpayable",
      "type": "function"
    },
    {
      "constant": true,
      "inputs": [
        {
          "name": "account",
          "type": "address"
        }
      ],
      "name": "isDistributor",
      "outputs": [
        {
          "name": "",
          "type": "bool"
        }
      ],
      "payable": false,
      "stateMutability": "view",
      "type": "function"
    },
    {
      "constant": true,
      "inputs": [],
      "name": "isOwner",
      "outputs": [
        {
          "name": "",
          "type": "bool"
        }
      ],
      "payable": false,
      "stateMutability": "view",
      "type": "function"
    },
    {
      "constant": true,
      "inputs": [],
      "name": "_owner",
      "outputs": [
        {
          "name": "",
          "type": "address"
        }
      ],
      "payable": false,
      "stateMutability": "view",
      "type": "function"
    },
    {
      "constant": false,
      "inputs": [
        {
          "name": "account",
          "type": "address"
        }
      ],
      "name": "addListener",
      "outputs": [],
      "payable": false,
      "stateMutability": "nonpayable",
      "type": "function"
    },
    {
      "constant": false,
      "inputs": [
        {
          "name": "account",
          "type": "address"
        }
      ],
      "name": "addMusician",
      "outputs": [],
      "payable": false,
      "stateMutability": "nonpayable",
      "type": "function"
    },
    {
      "constant": false,
      "inputs": [
        {
          "name": "account",
          "type": "address"
        }
      ],
      "name": "addProducer",
      "outputs": [],
      "payable": false,
      "stateMutability": "nonpayable",
      "type": "function"
    },
    {
      "constant": false,
      "inputs": [],
      "name": "renounceListener",
      "outputs": [],
      "payable": false,
      "stateMutability": "nonpayable",
      "type": "function"
    },
    {
      "constant": false,
      "inputs": [
        {
          "name": "newOwner",
          "type": "address"
        }
      ],
      "name": "transferOwnership",
      "outputs": [],
      "payable": false,
      "stateMutability": "nonpayable",
      "type": "function"
    },
    {
      "constant": true,
      "inputs": [
        {
          "name": "account",
          "type": "address"
        }
      ],
      "name": "isProducer",
      "outputs": [
        {
          "name": "",
          "type": "bool"
        }
      ],
      "payable": false,
      "stateMutability": "view",
      "type": "function"
    },
    {
      "constant": false,
      "inputs": [],
      "name": "renounceProducer",
      "outputs": [],
      "payable": false,
      "stateMutability": "nonpayable",
      "type": "function"
    },
    {
      "inputs": [],
      "payable": true,
      "stateMutability": "payable",
      "type": "constructor"
    },
    {
      "anonymous": false,
      "inputs": [
        {
          "indexed": false,
          "name": "upc",
          "type": "uint256"
        }
      ],
      "name": "MelodyWritten",
      "type": "event"
    },
    {
      "anonymous": false,
      "inputs": [
        {
          "indexed": false,
          "name": "upc",
          "type": "uint256"
        }
      ],
      "name": "LyricsWritten",
      "type": "event"
    },
    {
      "anonymous": false,
      "inputs": [
        {
          "indexed": false,
          "name": "upc",
          "type": "uint256"
        }
      ],
      "name": "Played",
      "type": "event"
    },
    {
      "anonymous": false,
      "inputs": [
        {
          "indexed": false,
          "name": "upc",
          "type": "uint256"
        }
      ],
      "name": "Recorded",
      "type": "event"
    },
    {
      "anonymous": false,
      "inputs": [
        {
          "indexed": false,
          "name": "upc",
          "type": "uint256"
        }
      ],
      "name": "Approved",
      "type": "event"
    },
    {
      "anonymous": false,
      "inputs": [
        {
          "indexed": false,
          "name": "upc",
          "type": "uint256"
        }
      ],
      "name": "Released",
      "type": "event"
    },
    {
      "anonymous": false,
      "inputs": [
        {
          "indexed": false,
          "name": "upc",
          "type": "uint256"
        }
      ],
      "name": "Received",
      "type": "event"
    },
    {
      "anonymous": false,
      "inputs": [
        {
          "indexed": false,
          "name": "upc",
          "type": "uint256"
        }
      ],
      "name": "Purchased",
      "type": "event"
    },
    {
      "anonymous": false,
      "inputs": [
        {
          "indexed": true,
          "name": "account",
          "type": "address"
        }
      ],
      "name": "ListenerAdded",
      "type": "event"
    },
    {
      "anonymous": false,
      "inputs": [
        {
          "indexed": true,
          "name": "account",
          "type": "address"
        }
      ],
      "name": "ListenerRemoved",
      "type": "event"
    },
    {
      "anonymous": false,
      "inputs": [
        {
          "indexed": true,
          "name": "account",
          "type": "address"
        }
      ],
      "name": "DistributorAdded",
      "type": "event"
    },
    {
      "anonymous": false,
      "inputs": [
        {
          "indexed": true,
          "name": "account",
          "type": "address"
        }
      ],
      "name": "DistributorRemoved",
      "type": "event"
    },
    {
      "anonymous": false,
      "inputs": [
        {
          "indexed": true,
          "name": "account",
          "type": "address"
        }
      ],
      "name": "ProducerAdded",
      "type": "event"
    },
    {
      "anonymous": false,
      "inputs": [
        {
          "indexed": true,
          "name": "account",
          "type": "address"
        }
      ],
      "name": "ProducerRemoved",
      "type": "event"
    },
    {
      "anonymous": false,
      "inputs": [
        {
          "indexed": true,
          "name": "account",
          "type": "address"
        }
      ],
      "name": "MusicianAdded",
      "type": "event"
    },
    {
      "anonymous": false,
      "inputs": [
        {
          "indexed": true,
          "name": "account",
          "type": "address"
        }
      ],
      "name": "MusicianRemoved",
      "type": "event"
    },
    {
      "anonymous": false,
      "inputs": [
        {
          "indexed": true,
          "name": "oldOwner",
          "type": "address"
        },
        {
          "indexed": true,
          "name": "newOwner",
          "type": "address"
        }
      ],
      "name": "TransferOwnership",
      "type": "event"
    },
    {
      "constant": false,
      "inputs": [],
      "name": "kill",
      "outputs": [],
      "payable": false,
      "stateMutability": "nonpayable",
      "type": "function"
    },
    {
      "constant": false,
      "inputs": [
        {
          "name": "_upc",
          "type": "uint256"
        },
        {
          "name": "_originMusicianID",
          "type": "address"
        },
        {
          "name": "_originMusicianName",
          "type": "string"
        },
        {
          "name": "_originMusicianInformation",
          "type": "string"
        },
        {
          "name": "_songNotes",
          "type": "string"
        }
      ],
      "name": "writeMelody",
      "outputs": [],
      "payable": false,
      "stateMutability": "nonpayable",
      "type": "function"
    },
    {
      "constant": false,
      "inputs": [
        {
          "name": "_upc",
          "type": "uint256"
        }
      ],
      "name": "writeLyrics",
      "outputs": [],
      "payable": false,
      "stateMutability": "nonpayable",
      "type": "function"
    },
    {
      "constant": false,
      "inputs": [
        {
          "name": "_upc",
          "type": "uint256"
        },
        {
          "name": "_producerShares",
          "type": "uint256"
        }
      ],
      "name": "playTracks",
      "outputs": [],
      "payable": false,
      "stateMutability": "nonpayable",
      "type": "function"
    },
    {
      "constant": false,
      "inputs": [
        {
          "name": "_upc",
          "type": "uint256"
        }
      ],
      "name": "recordTracks",
      "outputs": [],
      "payable": false,
      "stateMutability": "nonpayable",
      "type": "function"
    },
    {
      "constant": false,
      "inputs": [
        {
          "name": "_upc",
          "type": "uint256"
        }
      ],
      "name": "approveTracks",
      "outputs": [],
      "payable": false,
      "stateMutability": "nonpayable",
      "type": "function"
    },
    {
      "constant": false,
      "inputs": [
        {
          "name": "_upc",
          "type": "uint256"
        },
        {
          "name": "_songPrice",
          "type": "uint256"
        },
        {
          "name": "_distributorShares",
          "type": "uint256"
        }
      ],
      "name": "releaseSong",
      "outputs": [],
      "payable": false,
      "stateMutability": "nonpayable",
      "type": "function"
    },
    {
      "constant": false,
      "inputs": [
        {
          "name": "_upc",
          "type": "uint256"
        }
      ],
      "name": "receiveSong",
      "outputs": [],
      "payable": false,
      "stateMutability": "nonpayable",
      "type": "function"
    },
    {
      "constant": false,
      "inputs": [
        {
          "name": "_upc",
          "type": "uint256"
        }
      ],
      "name": "purchaseSong",
      "outputs": [],
      "payable": true,
      "stateMutability": "payable",
      "type": "function"
    },
    {
      "constant": true,
      "inputs": [
        {
          "name": "_upc",
          "type": "uint256"
        }
      ],
      "name": "fetchSongBufferOne",
      "outputs": [
        {
          "name": "songSKU",
          "type": "uint256"
        },
        {
          "name": "songUPC",
          "type": "uint256"
        },
        {
          "name": "ownerID",
          "type": "address"
        },
        {
          "name": "originMusicianID",
          "type": "address"
        },
        {
          "name": "originMusicianName",
          "type": "string"
        },
        {
          "name": "originMusicianInformation",
          "type": "string"
        }
      ],
      "payable": false,
      "stateMutability": "view",
      "type": "function"
    },
    {
      "constant": true,
      "inputs": [
        {
          "name": "_upc",
          "type": "uint256"
        }
      ],
      "name": "fetchSongBufferTwo",
      "outputs": [
        {
          "name": "songSKU",
          "type": "uint256"
        },
        {
          "name": "songUPC",
          "type": "uint256"
        },
        {
          "name": "songID",
          "type": "uint256"
        },
        {
          "name": "songNotes",
          "type": "string"
        },
        {
          "name": "songPrice",
          "type": "uint256"
        },
        {
          "name": "songState",
          "type": "uint256"
        },
        {
          "name": "musicianShares",
          "type": "uint256"
        },
        {
          "name": "producerShares",
          "type": "uint256"
        },
        {
          "name": "distributorShares",
          "type": "uint256"
        },
        {
          "name": "producerID",
          "type": "address"
        },
        {
          "name": "distributorID",
          "type": "address"
        },
        {
          "name": "listenerID",
          "type": "address"
        }
      ],
      "payable": false,
      "stateMutability": "view",
      "type": "function"
    }
  ],
  "bytecode": "0x6080604052336000806101000a81548173ffffffffffffffffffffffffffffffffffffffff021916908373ffffffffffffffffffffffffffffffffffffffff1602179055506000809054906101000a900473ffffffffffffffffffffffffffffffffffffffff1673ffffffffffffffffffffffffffffffffffffffff16600073ffffffffffffffffffffffffffffffffffffffff167f5c486528ec3e3f0ea91181cff8116f02bfa350e03b8b6f12e00765adbb5af85c60405160405180910390a3620000da336200017f640100000000026401000000009004565b620000f433620001e9640100000000026401000000009004565b6200010e3362000253640100000000026401000000009004565b6200012833620002bd640100000000026401000000009004565b33600560006101000a81548173ffffffffffffffffffffffffffffffffffffffff021916908373ffffffffffffffffffffffffffffffffffffffff1602179055506001600781905550600160068190555062000635565b620001a381600162000327640100000000026200478f179091906401000000009004565b8073ffffffffffffffffffffffffffffffffffffffff167f66ee4d248634cd44ce799c56dc34e29539eda894842fab4be2c63ce9682e970c60405160405180910390a250565b6200020d81600262000327640100000000026200478f179091906401000000009004565b8073ffffffffffffffffffffffffffffffffffffffff167f2977383b0207d39ef14220620b6cf3e6c9b6e78592af90baeef6614ed2fcd2c660405160405180910390a250565b6200027781600362000327640100000000026200478f179091906401000000009004565b8073ffffffffffffffffffffffffffffffffffffffff167fddbf200aa634dc3fb81cfd68583dd1040d1c751d335e1d86b631bde3e977fea860405160405180910390a250565b620002e181600462000327640100000000026200478f179091906401000000009004565b8073ffffffffffffffffffffffffffffffffffffffff167ff4b5d7970f8d26d7e8c6b74e8ffad0e1b0f67bc7f92238bd7efd485731eceafa60405160405180910390a250565b80600073ffffffffffffffffffffffffffffffffffffffff168173ffffffffffffffffffffffffffffffffffffffff1614151515620003f4576040517f08c379a00000000000000000000000000000000000000000000000000000000081526004018080602001828103825260218152602001807f46756e6374696f6e2072657175697265732061206e6f6e2d302061646472657381526020017f730000000000000000000000000000000000000000000000000000000000000081525060400191505060405180910390fd5b82826200041182826200050e640100000000026401000000009004565b151515620004ad576040517f08c379a00000000000000000000000000000000000000000000000000000000081526004018080602001828103825260268152602001807f46756e6374696f6e207265717569726573206164647265737320746f2068617681526020017f6520726f6c65000000000000000000000000000000000000000000000000000081525060400191505060405180910390fd5b60018560000160008673ffffffffffffffffffffffffffffffffffffffff1673ffffffffffffffffffffffffffffffffffffffff16815260200190815260200160002060006101000a81548160ff0219169083151502179055505050505050565b600081600073ffffffffffffffffffffffffffffffffffffffff168173ffffffffffffffffffffffffffffffffffffffff1614151515620005dd576040517f08c379a00000000000000000000000000000000000000000000000000000000081526004018080602001828103825260218152602001807f46756e6374696f6e2072657175697265732061206e6f6e2d302061646472657381526020017f730000000000000000000000000000000000000000000000000000000000000081525060400191505060405180910390fd5b8360000160008473ffffffffffffffffffffffffffffffffffffffff1673ffffffffffffffffffffffffffffffffffffffff16815260200190815260200160002060009054906101000a900460ff1691505092915050565b614afe80620006456000396000f30060806040526004361061015f576000357c0100000000000000000000000000000000000000000000000000000000900463ffffffff16806304902dd2146101645780631450b6c5146101915780631b4099df146101ec578063240088eb1461030b5780632e2ffaa91461049157806331b2c089146106085780633b5ef5ea1461066357806341c0e1b5146106a4578063622c37f9146106bb578063644241db146106d25780636d9734d6146106e9578063715018a6146107165780637250e2241461072d5780637b3e4ce01461077057806385c06d08146107905780638f0c86fa146107c75780638f32d59b146108225780639387ded81461085157806393fd079a1461087e578063b2bdfa7b146108ab578063d5b5025214610902578063dc80801014610945578063ddf8016614610988578063e2a4e416146109cb578063f2fde38b146109e2578063f552102214610a25578063f9b867d814610a80575b600080fd5b34801561017057600080fd5b5061018f60048036038101908080359060200190929190505050610a97565b005b34801561019d57600080fd5b506101d2600480360381019080803573ffffffffffffffffffffffffffffffffffffffff169060200190929190505050610d55565b604051808215151515815260200191505060405180910390f35b3480156101f857600080fd5b5061030960048036038101908080359060200190929190803573ffffffffffffffffffffffffffffffffffffffff169060200190929190803590602001908201803590602001908080601f0160208091040260200160405190810160405280939291908181526020018383808284378201915050505050509192919290803590602001908201803590602001908080601f0160208091040260200160405190810160405280939291908181526020018383808284378201915050505050509192919290803590602001908201803590602001908080601f0160208091040260200160405190810160405280939291908181526020018383808284378201915050505050509192919290505050610d72565b005b34801561031757600080fd5b5061033660048036038101908080359060200190929190505050611146565b604051808781526020018681526020018573ffffffffffffffffffffffffffffffffffffffff1673ffffffffffffffffffffffffffffffffffffffff1681526020018473ffffffffffffffffffffffffffffffffffffffff1673ffffffffffffffffffffffffffffffffffffffff1681526020018060200180602001838103835285818151815260200191508051906020019080838360005b838110156103ea5780820151818401526020810190506103cf565b50505050905090810190601f1680156104175780820380516001836020036101000a031916815260200191505b50838103825284818151815260200191508051906020019080838360005b83811015610450578082015181840152602081019050610435565b50505050905090810190601f16801561047d5780820380516001836020036101000a031916815260200191505b509850505050505050505060405180910390f35b34801561049d57600080fd5b506104bc60048036038101908080359060200190929190505050611370565b604051808d81526020018c81526020018b8152602001806020018a81526020018981526020018881526020018781526020018681526020018573ffffffffffffffffffffffffffffffffffffffff1673ffffffffffffffffffffffffffffffffffffffff1681526020018473ffffffffffffffffffffffffffffffffffffffff1673ffffffffffffffffffffffffffffffffffffffff1681526020018373ffffffffffffffffffffffffffffffffffffffff1673ffffffffffffffffffffffffffffffffffffffff16815260200182810382528b818151815260200191508051906020019080838360005b838110156105c25780820151818401526020810190506105a7565b50505050905090810190601f1680156105ef5780820380516001836020036101000a031916815260200191505b509d505050505050505050505050505060405180910390f35b34801561061457600080fd5b50610649600480360381019080803573ffffffffffffffffffffffffffffffffffffffff1690602001909291905050506115f2565b604051808215151515815260200191505060405180910390f35b34801561066f57600080fd5b506106a260048036038101908080359060200190929190803590602001909291908035906020019092919050505061160f565b005b3480156106b057600080fd5b506106b9611eaf565b005b3480156106c757600080fd5b506106d0611f42565b005b3480156106de57600080fd5b506106e7611f4d565b005b3480156106f557600080fd5b5061071460048036038101908080359060200190929190505050611f58565b005b34801561072257600080fd5b5061072b6122f8565b005b34801561073957600080fd5b5061076e600480360381019080803573ffffffffffffffffffffffffffffffffffffffff1690602001909291905050506124a2565b005b61078e60048036038101908080359060200190929190505050612551565b005b34801561079c57600080fd5b506107c56004803603810190808035906020019092919080359060200190929190505050612bd0565b005b3480156107d357600080fd5b50610808600480360381019080803573ffffffffffffffffffffffffffffffffffffffff16906020019092919050505061343e565b604051808215151515815260200191505060405180910390f35b34801561082e57600080fd5b5061083761345b565b604051808215151515815260200191505060405180910390f35b34801561085d57600080fd5b5061087c600480360381019080803590602001909291905050506134b2565b005b34801561088a57600080fd5b506108a96004803603810190808035906020019092919050505061371b565b005b3480156108b757600080fd5b506108c0613a30565b604051808273ffffffffffffffffffffffffffffffffffffffff1673ffffffffffffffffffffffffffffffffffffffff16815260200191505060405180910390f35b34801561090e57600080fd5b50610943600480360381019080803573ffffffffffffffffffffffffffffffffffffffff169060200190929190505050613a59565b005b34801561095157600080fd5b50610986600480360381019080803573ffffffffffffffffffffffffffffffffffffffff169060200190929190505050613b08565b005b34801561099457600080fd5b506109c9600480360381019080803573ffffffffffffffffffffffffffffffffffffffff169060200190929190505050613bb7565b005b3480156109d757600080fd5b506109e0613c66565b005b3480156109ee57600080fd5b50610a23600480360381019080803573ffffffffffffffffffffffffffffffffffffffff169060200190929190505050613c71565b005b348015610a3157600080fd5b50610a66600480360381019080803573ffffffffffffffffffffffffffffffffffffffff169060200190929190505050613d68565b604051808215151515815260200191505060405180910390f35b348015610a8c57600080fd5b50610a95613d85565b005b8060066008811115610aa557fe5b6008600083815260200190815260200160002060090160009054906101000a900460ff166008811115610ad457fe5b141515610b95576040517f08c379a00000000000000000000000000000000000000000000000000000000081526004018080602001828103825260478152602001807f546869732066756e6374696f6e2072657175697265732074686520736f6e672081526020017f746f2068617665206265656e2072656c6561736564202862792074686520507281526020017f6f6475636572290000000000000000000000000000000000000000000000000081525060600191505060405180910390fd5b610b9e3361343e565b1515610c38576040517f08c379a00000000000000000000000000000000000000000000000000000000081526004018080602001828103825260288152602001807f4f6e6c79206469737472696275746f7273206d61792063616c6c20746869732081526020017f66756e6374696f6e00000000000000000000000000000000000000000000000081525060400191505060405180910390fd5b336008600084815260200190815260200160002060020160006101000a81548173ffffffffffffffffffffffffffffffffffffffff021916908373ffffffffffffffffffffffffffffffffffffffff1602179055503360086000848152602001908152602001600020600e0160006101000a81548173ffffffffffffffffffffffffffffffffffffffff021916908373ffffffffffffffffffffffffffffffffffffffff16021790555060076008600084815260200190815260200160002060090160006101000a81548160ff02191690836008811115610d1557fe5b02179055507fa8142743f8f70a4c26f3691cf4ed59718381fb2f18070ec52be1f1022d855557826040518082815260200191505060405180910390a15050565b6000610d6b826001613d9090919063ffffffff16565b9050919050565b8460006008811115610d8057fe5b6008600083815260200190815260200160002060090160009054906101000a900460ff166008811115610daf57fe5b141515610e4a576040517f08c379a00000000000000000000000000000000000000000000000000000000081526004018080602001828103825260388152602001807f546869732066756e6374696f6e2072657175697265732074686520736f6e672081526020017f746f206e6f742068617665206265656e207772697474656e000000000000000081525060400191505060405180910390fd5b610e5333610d55565b1515610eed576040517f08c379a00000000000000000000000000000000000000000000000000000000081526004018080602001828103825260258152602001807f4f6e6c79206d7573696369616e73206d61792063616c6c20746869732066756e81526020017f6374696f6e00000000000000000000000000000000000000000000000000000081525060400191505060405180910390fd5b6007546008600088815260200190815260200160002060000181905550856008600088815260200190815260200160002060010181905550846008600088815260200190815260200160002060020160006101000a81548173ffffffffffffffffffffffffffffffffffffffff021916908373ffffffffffffffffffffffffffffffffffffffff160217905550846008600088815260200190815260200160002060030160006101000a81548173ffffffffffffffffffffffffffffffffffffffff021916908373ffffffffffffffffffffffffffffffffffffffff16021790555083600860008881526020019081526020016000206004019080519060200190610ff9929190614a2d565b5082600860008881526020019081526020016000206005019080519060200190611024929190614a2d565b50606460086000888152602001908152602001600020600a0181905550600060086000888152602001908152602001600020600b0181905550600060086000888152602001908152602001600020600c018190555060075486016008600088815260200190815260200160002060060181905550816008600088815260200190815260200160002060070190805190602001906110c2929190614a2d565b5060016008600088815260200190815260200160002060090160006101000a81548160ff021916908360088111156110f657fe5b02179055506001600754016007819055507ff6685d9e0db6a05cfeed9cb6306f880d308919a17f7bac6fe109664643b2b0f4866040518082815260200191505060405180910390a1505050505050565b60008060008060608060086000888152602001908152602001600020600001549550600860008881526020019081526020016000206001015494506008600088815260200190815260200160002060020160009054906101000a900473ffffffffffffffffffffffffffffffffffffffff1693506008600088815260200190815260200160002060030160009054906101000a900473ffffffffffffffffffffffffffffffffffffffff169250600860008881526020019081526020016000206004018054600181600116156101000203166002900480601f01602080910402602001604051908101604052809291908181526020018280546001816001161561010002031660029004801561129d5780601f106112725761010080835404028352916020019161129d565b820191906000526020600020905b81548152906001019060200180831161128057829003601f168201915b50505050509150600860008881526020019081526020016000206005018054600181600116156101000203166002900480601f01602080910402602001604051908101604052809291908181526020018280546001816001161561010002031660029004801561134e5780601f106113235761010080835404028352916020019161134e565b820191906000526020600020905b81548152906001019060200180831161133157829003601f168201915b5050505050905085858585858595509550955095509550955091939550919395565b60008060006060600080600080600080600080600860008e8152602001908152602001600020600001549b50600860008e8152602001908152602001600020600101549a50600860008e8152602001908152602001600020600601549950600860008e81526020019081526020016000206007018054600181600116156101000203166002900480601f0160208091040260200160405190810160405280929190818152602001828054600181600116156101000203166002900480156114785780601f1061144d57610100808354040283529160200191611478565b820191906000526020600020905b81548152906001019060200180831161145b57829003601f168201915b50505050509850600860008e8152602001908152602001600020600801549750600860008e815260200190815260200160002060090160009054906101000a900460ff1660088111156114c757fe5b9650600860008e8152602001908152602001600020600a01549550600860008e8152602001908152602001600020600b01549450600860008e8152602001908152602001600020600c01549350600860008e8152602001908152602001600020600d0160009054906101000a900473ffffffffffffffffffffffffffffffffffffffff169250600860008e8152602001908152602001600020600e0160009054906101000a900473ffffffffffffffffffffffffffffffffffffffff169150600860008e8152602001908152602001600020600f0160009054906101000a900473ffffffffffffffffffffffffffffffffffffffff1690508b8b8b8b8b8b8b8b8b8b8b8b9b509b509b509b509b509b509b509b509b509b509b509b5091939597999b5091939597999b565b6000611608826004613d9090919063ffffffff16565b9050919050565b826005600881111561161d57fe5b6008600083815260200190815260200160002060090160009054906101000a900460ff16600881111561164c57fe5b14151561170d576040517f08c379a00000000000000000000000000000000000000000000000000000000081526004018080602001828103825260478152602001807f546869732066756e6374696f6e2072657175697265732074686520736f6e672081526020017f746f2068617665206265656e20617070726f7665642028627920746865204d7581526020017f73696369616e290000000000000000000000000000000000000000000000000081525060600191505060405180910390fd5b6008600085815260200190815260200160002060020160009054906101000a900473ffffffffffffffffffffffffffffffffffffffff168073ffffffffffffffffffffffffffffffffffffffff163373ffffffffffffffffffffffffffffffffffffffff1614151561180d576040517f08c379a000000000000000000000000000000000000000000000000000000000815260040180806020018281038252602c8152602001807f43616c6c6572206973206e6f7420766572696669656420746f2063616c6c207481526020017f6869732066756e6374696f6e000000000000000000000000000000000000000081525060400191505060405180910390fd5b61181633613d68565b15156118b0576040517f08c379a00000000000000000000000000000000000000000000000000000000081526004018080602001828103825260258152602001807f4f6e6c792070726f647563657273206d61792063616c6c20746869732066756e81526020017f6374696f6e00000000000000000000000000000000000000000000000000000081525060400191505060405180910390fd5b60086000868152602001908152602001600020600a01546118f08460086000898152602001908152602001600020600b0154613eb690919063ffffffff16565b61191985600860008a8152602001908152602001600020600c0154613f0090919063ffffffff16565b600083101515156119b8576040517f08c379a00000000000000000000000000000000000000000000000000000000081526004018080602001828103825260248152602001807f43616e6e6f742068617665206e65676174697665204d7573696369616e20536881526020017f617265730000000000000000000000000000000000000000000000000000000081525060400191505060405180910390fd5b60648311151515611a57576040517f08c379a00000000000000000000000000000000000000000000000000000000081526004018080602001828103825260248152602001807f43616e6e6f742068617665206f76657220313030204d7573696369616e20536881526020017f617265730000000000000000000000000000000000000000000000000000000081525060400191505060405180910390fd5b60008210151515611af6576040517f08c379a00000000000000000000000000000000000000000000000000000000081526004018080602001828103825260248152602001807f43616e6e6f742068617665206e656761746976652050726f647563657220536881526020017f617265730000000000000000000000000000000000000000000000000000000081525060400191505060405180910390fd5b60648211151515611b95576040517f08c379a00000000000000000000000000000000000000000000000000000000081526004018080602001828103825260248152602001807f43616e6e6f742068617665206f766572203130302050726f647563657220536881526020017f617265730000000000000000000000000000000000000000000000000000000081525060400191505060405180910390fd5b60008110151515611c34576040517f08c379a00000000000000000000000000000000000000000000000000000000081526004018080602001828103825260278152602001807f43616e6e6f742068617665206e65676174697665204469737472696275746f7281526020017f205368617265730000000000000000000000000000000000000000000000000081525060400191505060405180910390fd5b60648111151515611cd3576040517f08c379a00000000000000000000000000000000000000000000000000000000081526004018080602001828103825260278152602001807f43616e6e6f742068617665206f76657220313030204469737472696275746f7281526020017f205368617265730000000000000000000000000000000000000000000000000081525060400191505060405180910390fd5b6064611cfa82611cec8587613f0090919063ffffffff16565b613f0090919063ffffffff16565b141515611d95576040517f08c379a000000000000000000000000000000000000000000000000000000000815260040180806020018281038252602c8152602001807f546f74616c206e756d626572206f66206f776e6572736869702073686172657381526020017f206d75737420626520313030000000000000000000000000000000000000000081525060400191505060405180910390fd5b611dbe86600860008b8152602001908152602001600020600b0154613eb690919063ffffffff16565b600860008a8152602001908152602001600020600b0181905550611e0186600860008b8152602001908152602001600020600c0154613f0090919063ffffffff16565b600860008a8152602001908152602001600020600c018190555086600860008a8152602001908152602001600020600801819055506006600860008a815260200190815260200160002060090160006101000a81548160ff02191690836008811115611e6957fe5b02179055507ffb81f9b30d73d830c3544b34d827c08142579ee75710b490bab0b3995468c565886040518082815260200191505060405180910390a15050505050505050565b600560009054906101000a900473ffffffffffffffffffffffffffffffffffffffff1673ffffffffffffffffffffffffffffffffffffffff163373ffffffffffffffffffffffffffffffffffffffff161415611f4057600560009054906101000a900473ffffffffffffffffffffffffffffffffffffffff1673ffffffffffffffffffffffffffffffffffffffff16ff5b565b611f4b33613f8a565b565b611f5633613fe4565b565b8060046008811115611f6657fe5b6008600083815260200190815260200160002060090160009054906101000a900460ff166008811115611f9557fe5b141515612056576040517f08c379a00000000000000000000000000000000000000000000000000000000081526004018080602001828103825260478152602001807f546869732066756e6374696f6e2072657175697265732074686520736f6e672081526020017f746f2068617665206265656e207265636f72646564202862792074686520507281526020017f6f6475636572290000000000000000000000000000000000000000000000000081525060600191505060405180910390fd5b6008600083815260200190815260200160002060020160009054906101000a900473ffffffffffffffffffffffffffffffffffffffff168073ffffffffffffffffffffffffffffffffffffffff163373ffffffffffffffffffffffffffffffffffffffff16141515612156576040517f08c379a000000000000000000000000000000000000000000000000000000000815260040180806020018281038252602c8152602001807f43616c6c6572206973206e6f7420766572696669656420746f2063616c6c207481526020017f6869732066756e6374696f6e000000000000000000000000000000000000000081525060400191505060405180910390fd5b61215f33610d55565b15156121f9576040517f08c379a00000000000000000000000000000000000000000000000000000000081526004018080602001828103825260258152602001807f4f6e6c79206d7573696369616e73206d61792063616c6c20746869732066756e81526020017f6374696f6e00000000000000000000000000000000000000000000000000000081525060400191505060405180910390fd5b60086000848152602001908152602001600020600d0160009054906101000a900473ffffffffffffffffffffffffffffffffffffffff166008600085815260200190815260200160002060020160006101000a81548173ffffffffffffffffffffffffffffffffffffffff021916908373ffffffffffffffffffffffffffffffffffffffff16021790555060056008600085815260200190815260200160002060090160006101000a81548160ff021916908360088111156122b757fe5b02179055507f3ad93af63cb7967b23e4fb500b7d7d28b07516325dcf341f88bebf959d82c1cb836040518082815260200191505060405180910390a1505050565b600560009054906101000a900473ffffffffffffffffffffffffffffffffffffffff1673ffffffffffffffffffffffffffffffffffffffff163373ffffffffffffffffffffffffffffffffffffffff161415156123e3576040517f08c379a00000000000000000000000000000000000000000000000000000000081526004018080602001828103825260358152602001807f4f6e6c7920746865206f776e6572206f662074686520636f6e7472616374206381526020017f616e2063616c6c20746869732066756e6374696f6e000000000000000000000081525060400191505060405180910390fd5b600073ffffffffffffffffffffffffffffffffffffffff166000809054906101000a900473ffffffffffffffffffffffffffffffffffffffff1673ffffffffffffffffffffffffffffffffffffffff167f5c486528ec3e3f0ea91181cff8116f02bfa350e03b8b6f12e00765adbb5af85c60405160405180910390a360008060006101000a81548173ffffffffffffffffffffffffffffffffffffffff021916908373ffffffffffffffffffffffffffffffffffffffff160217905550565b6124ab3361343e565b1515612545576040517f08c379a00000000000000000000000000000000000000000000000000000000081526004018080602001828103825260288152602001807f4f6e6c79206469737472696275746f7273206d61792063616c6c20746869732081526020017f66756e6374696f6e00000000000000000000000000000000000000000000000081525060400191505060405180910390fd5b61254e8161403e565b50565b806007600881111561255f57fe5b6008600083815260200190815260200160002060090160009054906101000a900460ff16600881111561258e57fe5b14151561264f576040517f08c379a000000000000000000000000000000000000000000000000000000000815260040180806020018281038252604a8152602001807f546869732066756e6374696f6e2072657175697265732074686520736f6e672081526020017f746f2068617665206265656e207265636569766564202862792074686520446981526020017f737472696275746f72290000000000000000000000000000000000000000000081525060600191505060405180910390fd5b612658336115f2565b15156126f2576040517f08c379a00000000000000000000000000000000000000000000000000000000081526004018080602001828103825260258152602001807f4f6e6c79206c697374656e657273206d61792063616c6c20746869732066756e81526020017f6374696f6e00000000000000000000000000000000000000000000000000000081525060400191505060405180910390fd5b60086000838152602001908152602001600020600801548034101515156127a7576040517f08c379a000000000000000000000000000000000000000000000000000000000815260040180806020018281038252603b8152602001807f43616c6c657220686173206e6f74207061696420612073756666696369656e7481526020017f20616d6f756e7420746f20726563696576652074686520736f6e67000000000081525060400191505060405180910390fd5b82600080336008600088815260200190815260200160002060020160006101000a81548173ffffffffffffffffffffffffffffffffffffffff021916908373ffffffffffffffffffffffffffffffffffffffff1602179055503360086000888152602001908152602001600020600f0160006101000a81548173ffffffffffffffffffffffffffffffffffffffff021916908373ffffffffffffffffffffffffffffffffffffffff160217905550600880600088815260200190815260200160002060090160006101000a81548160ff0219169083600881111561288757fe5b02179055506008600087815260200190815260200160002060030160009054906101000a900473ffffffffffffffffffffffffffffffffffffffff1673ffffffffffffffffffffffffffffffffffffffff166108fc61292e6064612920600860008c8152602001908152602001600020600a0154600860008d81526020019081526020016000206008015461409890919063ffffffff16565b61416590919063ffffffff16565b9081150290604051600060405180830381858888f19350505050158015612959573d6000803e3d6000fd5b5060086000878152602001908152602001600020600d0160009054906101000a900473ffffffffffffffffffffffffffffffffffffffff1673ffffffffffffffffffffffffffffffffffffffff166108fc6129fc60646129ee600860008c8152602001908152602001600020600b0154600860008d81526020019081526020016000206008015461409890919063ffffffff16565b61416590919063ffffffff16565b9081150290604051600060405180830381858888f19350505050158015612a27573d6000803e3d6000fd5b5060086000878152602001908152602001600020600e0160009054906101000a900473ffffffffffffffffffffffffffffffffffffffff1673ffffffffffffffffffffffffffffffffffffffff166108fc612aca6064612abc600860008c8152602001908152602001600020600c0154600860008d81526020019081526020016000206008015461409890919063ffffffff16565b61416590919063ffffffff16565b9081150290604051600060405180830381858888f19350505050158015612af5573d6000803e3d6000fd5b507f653d56639fee6b566a5c804764e9689de38645f0b733df89a36a1b7b42173dd8866040518082815260200191505060405180910390a160086000848152602001908152602001600020600801549150813403905060086000848152602001908152602001600020600f0160009054906101000a900473ffffffffffffffffffffffffffffffffffffffff1673ffffffffffffffffffffffffffffffffffffffff166108fc829081150290604051600060405180830381858888f19350505050158015612bc7573d6000803e3d6000fd5b50505050505050565b8160026008811115612bde57fe5b6008600083815260200190815260200160002060090160009054906101000a900460ff166008811115612c0d57fe5b141515612cce576040517f08c379a00000000000000000000000000000000000000000000000000000000081526004018080602001828103825260488152602001807f546869732066756e6374696f6e20726571756972657320746865206c7972696381526020017f7320746f2068617665206265656e207772697474656e2028627920746865204d81526020017f7573696369616e2900000000000000000000000000000000000000000000000081525060600191505060405180910390fd5b6008600084815260200190815260200160002060020160009054906101000a900473ffffffffffffffffffffffffffffffffffffffff168073ffffffffffffffffffffffffffffffffffffffff163373ffffffffffffffffffffffffffffffffffffffff16141515612dce576040517f08c379a000000000000000000000000000000000000000000000000000000000815260040180806020018281038252602c8152602001807f43616c6c6572206973206e6f7420766572696669656420746f2063616c6c207481526020017f6869732066756e6374696f6e000000000000000000000000000000000000000081525060400191505060405180910390fd5b612dd733610d55565b1515612e71576040517f08c379a00000000000000000000000000000000000000000000000000000000081526004018080602001828103825260258152602001807f4f6e6c79206d7573696369616e73206d61792063616c6c20746869732066756e81526020017f6374696f6e00000000000000000000000000000000000000000000000000000081525060400191505060405180910390fd5b612e9a8360086000878152602001908152602001600020600a0154613eb690919063ffffffff16565b612ec38460086000888152602001908152602001600020600b0154613f0090919063ffffffff16565b6000808310151515612f63576040517f08c379a00000000000000000000000000000000000000000000000000000000081526004018080602001828103825260248152602001807f43616e6e6f742068617665206e65676174697665204d7573696369616e20536881526020017f617265730000000000000000000000000000000000000000000000000000000081525060400191505060405180910390fd5b60648311151515613002576040517f08c379a00000000000000000000000000000000000000000000000000000000081526004018080602001828103825260248152602001807f43616e6e6f742068617665206f76657220313030204d7573696369616e20536881526020017f617265730000000000000000000000000000000000000000000000000000000081525060400191505060405180910390fd5b600082101515156130a1576040517f08c379a00000000000000000000000000000000000000000000000000000000081526004018080602001828103825260248152602001807f43616e6e6f742068617665206e656761746976652050726f647563657220536881526020017f617265730000000000000000000000000000000000000000000000000000000081525060400191505060405180910390fd5b60648211151515613140576040517f08c379a00000000000000000000000000000000000000000000000000000000081526004018080602001828103825260248152602001807f43616e6e6f742068617665206f766572203130302050726f647563657220536881526020017f617265730000000000000000000000000000000000000000000000000000000081525060400191505060405180910390fd5b600081101515156131df576040517f08c379a00000000000000000000000000000000000000000000000000000000081526004018080602001828103825260278152602001807f43616e6e6f742068617665206e65676174697665204469737472696275746f7281526020017f205368617265730000000000000000000000000000000000000000000000000081525060400191505060405180910390fd5b6064811115151561327e576040517f08c379a00000000000000000000000000000000000000000000000000000000081526004018080602001828103825260278152602001807f43616e6e6f742068617665206f76657220313030204469737472696275746f7281526020017f205368617265730000000000000000000000000000000000000000000000000081525060400191505060405180910390fd5b60646132a5826132978587613f0090919063ffffffff16565b613f0090919063ffffffff16565b141515613340576040517f08c379a000000000000000000000000000000000000000000000000000000000815260040180806020018281038252602c8152602001807f546f74616c206e756d626572206f66206f776e6572736869702073686172657381526020017f206d75737420626520313030000000000000000000000000000000000000000081525060400191505060405180910390fd5b61336986600860008a8152602001908152602001600020600a0154613eb690919063ffffffff16565b60086000898152602001908152602001600020600a01819055506133ac86600860008a8152602001908152602001600020600b0154613f0090919063ffffffff16565b60086000898152602001908152602001600020600b018190555060036008600089815260200190815260200160002060090160006101000a81548160ff021916908360088111156133f957fe5b02179055507f058365367dbf27b3eb0105dc3673f1ebf4fd677c3d63be59eed845df3c83db7f876040518082815260200191505060405180910390a150505050505050565b6000613454826003613d9090919063ffffffff16565b9050919050565b60008060009054906101000a900473ffffffffffffffffffffffffffffffffffffffff1673ffffffffffffffffffffffffffffffffffffffff163373ffffffffffffffffffffffffffffffffffffffff1614905090565b80600360088111156134c057fe5b6008600083815260200190815260200160002060090160009054906101000a900460ff1660088111156134ef57fe5b1415156135b0576040517f08c379a00000000000000000000000000000000000000000000000000000000081526004018080602001828103825260458152602001807f546869732066756e6374696f6e2072657175697265732074686520736f6e672081526020017f746f2068617665206265656e20706c617965642028627920746865204d75736981526020017f6369616e2900000000000000000000000000000000000000000000000000000081525060600191505060405180910390fd5b6135b933613d68565b1515613653576040517f08c379a00000000000000000000000000000000000000000000000000000000081526004018080602001828103825260258152602001807f4f6e6c792070726f647563657273206d61792063616c6c20746869732066756e81526020017f6374696f6e00000000000000000000000000000000000000000000000000000081525060400191505060405180910390fd5b3360086000848152602001908152602001600020600d0160006101000a81548173ffffffffffffffffffffffffffffffffffffffff021916908373ffffffffffffffffffffffffffffffffffffffff16021790555060046008600084815260200190815260200160002060090160006101000a81548160ff021916908360088111156136db57fe5b02179055507f3418577b9d6ee1f29ecaa9fa9bd19b32163a53ba06af0e8bb173490ff7cdf40b826040518082815260200191505060405180910390a15050565b806001600881111561372957fe5b6008600083815260200190815260200160002060090160009054906101000a900460ff16600881111561375857fe5b141515613819576040517f08c379a00000000000000000000000000000000000000000000000000000000081526004018080602001828103825260488152602001807f546869732066756e6374696f6e20726571756972657320746865206d656c6f6481526020017f7920746f2068617665206265656e207772697474656e2028627920746865204d81526020017f7573696369616e2900000000000000000000000000000000000000000000000081525060600191505060405180910390fd5b6008600083815260200190815260200160002060020160009054906101000a900473ffffffffffffffffffffffffffffffffffffffff168073ffffffffffffffffffffffffffffffffffffffff163373ffffffffffffffffffffffffffffffffffffffff16141515613919576040517f08c379a000000000000000000000000000000000000000000000000000000000815260040180806020018281038252602c8152602001807f43616c6c6572206973206e6f7420766572696669656420746f2063616c6c207481526020017f6869732066756e6374696f6e000000000000000000000000000000000000000081525060400191505060405180910390fd5b61392233610d55565b15156139bc576040517f08c379a00000000000000000000000000000000000000000000000000000000081526004018080602001828103825260258152602001807f4f6e6c79206d7573696369616e73206d61792063616c6c20746869732066756e81526020017f6374696f6e00000000000000000000000000000000000000000000000000000081525060400191505060405180910390fd5b60026008600085815260200190815260200160002060090160006101000a81548160ff021916908360088111156139ef57fe5b02179055507ffc1fe01b4ad451d6339a37cab1fb8ec0717cdd7089242d9396f178793d593cdf836040518082815260200191505060405180910390a1505050565b60008060009054906101000a900473ffffffffffffffffffffffffffffffffffffffff16905090565b613a62336115f2565b1515613afc576040517f08c379a00000000000000000000000000000000000000000000000000000000081526004018080602001828103825260258152602001807f4f6e6c79206c697374656e657273206d61792063616c6c20746869732066756e81526020017f6374696f6e00000000000000000000000000000000000000000000000000000081525060400191505060405180910390fd5b613b05816141af565b50565b613b1133610d55565b1515613bab576040517f08c379a00000000000000000000000000000000000000000000000000000000081526004018080602001828103825260258152602001807f4f6e6c79206d7573696369616e73206d61792063616c6c20746869732066756e81526020017f6374696f6e00000000000000000000000000000000000000000000000000000081525060400191505060405180910390fd5b613bb481614209565b50565b613bc033613d68565b1515613c5a576040517f08c379a00000000000000000000000000000000000000000000000000000000081526004018080602001828103825260258152602001807f4f6e6c792070726f647563657273206d61792063616c6c20746869732066756e81526020017f6374696f6e00000000000000000000000000000000000000000000000000000081525060400191505060405180910390fd5b613c6381614263565b50565b613c6f336142bd565b565b600560009054906101000a900473ffffffffffffffffffffffffffffffffffffffff1673ffffffffffffffffffffffffffffffffffffffff163373ffffffffffffffffffffffffffffffffffffffff16141515613d5c576040517f08c379a00000000000000000000000000000000000000000000000000000000081526004018080602001828103825260358152602001807f4f6e6c7920746865206f776e6572206f662074686520636f6e7472616374206381526020017f616e2063616c6c20746869732066756e6374696f6e000000000000000000000081525060400191505060405180910390fd5b613d6581614317565b50565b6000613d7e826002613d9090919063ffffffff16565b9050919050565b613d8e336144a0565b565b600081600073ffffffffffffffffffffffffffffffffffffffff168173ffffffffffffffffffffffffffffffffffffffff1614151515613e5e576040517f08c379a00000000000000000000000000000000000000000000000000000000081526004018080602001828103825260218152602001807f46756e6374696f6e2072657175697265732061206e6f6e2d302061646472657381526020017f730000000000000000000000000000000000000000000000000000000000000081525060400191505060405180910390fd5b8360000160008473ffffffffffffffffffffffffffffffffffffffff1673ffffffffffffffffffffffffffffffffffffffff16815260200190815260200160002060009054906101000a900460ff1691505092915050565b6000613ef883836040805190810160405280601e81526020017f536166654d6174683a207375627472616374696f6e206f766572666c6f7700008152506144fa565b905092915050565b6000808284019050838110151515613f80576040517f08c379a000000000000000000000000000000000000000000000000000000000815260040180806020018281038252601b8152602001807f536166654d6174683a206164646974696f6e206f766572666c6f77000000000081525060200191505060405180910390fd5b8091505092915050565b613f9e8160016145bb90919063ffffffff16565b8073ffffffffffffffffffffffffffffffffffffffff167f84bb5b422ed2e997cf11ed02acdfc06decb11ad55b8033166c72b426fa05908360405160405180910390a250565b613ff88160036145bb90919063ffffffff16565b8073ffffffffffffffffffffffffffffffffffffffff167f126174f6cf49c81cdb4a9214c6b8f037bef55b4ec31e4fc776cea2a1c8a88d5960405160405180910390a250565b61405281600361478f90919063ffffffff16565b8073ffffffffffffffffffffffffffffffffffffffff167fddbf200aa634dc3fb81cfd68583dd1040d1c751d335e1d86b631bde3e977fea860405160405180910390a250565b60008060008414156140ad576000915061415e565b82840290508284828115156140be57fe5b0414151561415a576040517f08c379a00000000000000000000000000000000000000000000000000000000081526004018080602001828103825260218152602001807f536166654d6174683a206d756c7469706c69636174696f6e206f766572666c6f81526020017f770000000000000000000000000000000000000000000000000000000000000081525060400191505060405180910390fd5b8091505b5092915050565b60006141a783836040805190810160405280601a81526020017f536166654d6174683a206469766973696f6e206279207a65726f000000000000815250614963565b905092915050565b6141c381600461478f90919063ffffffff16565b8073ffffffffffffffffffffffffffffffffffffffff167ff4b5d7970f8d26d7e8c6b74e8ffad0e1b0f67bc7f92238bd7efd485731eceafa60405160405180910390a250565b61421d81600161478f90919063ffffffff16565b8073ffffffffffffffffffffffffffffffffffffffff167f66ee4d248634cd44ce799c56dc34e29539eda894842fab4be2c63ce9682e970c60405160405180910390a250565b61427781600261478f90919063ffffffff16565b8073ffffffffffffffffffffffffffffffffffffffff167f2977383b0207d39ef14220620b6cf3e6c9b6e78592af90baeef6614ed2fcd2c660405160405180910390a250565b6142d18160046145bb90919063ffffffff16565b8073ffffffffffffffffffffffffffffffffffffffff167ff8719b53666b7bc68a4c9d081dccc309d69026d56bdeaa8518620d6ff831d18960405160405180910390a250565b600073ffffffffffffffffffffffffffffffffffffffff168173ffffffffffffffffffffffffffffffffffffffff16141515156143e2576040517f08c379a00000000000000000000000000000000000000000000000000000000081526004018080602001828103825260238152602001807f4e6577206f776e65722063616e6e6f74206265206120626c616e6b206164647281526020017f657373000000000000000000000000000000000000000000000000000000000081525060400191505060405180910390fd5b8073ffffffffffffffffffffffffffffffffffffffff166000809054906101000a900473ffffffffffffffffffffffffffffffffffffffff1673ffffffffffffffffffffffffffffffffffffffff167f5c486528ec3e3f0ea91181cff8116f02bfa350e03b8b6f12e00765adbb5af85c60405160405180910390a3806000806101000a81548173ffffffffffffffffffffffffffffffffffffffff021916908373ffffffffffffffffffffffffffffffffffffffff16021790555050565b6144b48160026145bb90919063ffffffff16565b8073ffffffffffffffffffffffffffffffffffffffff167fb78e9906c5bae930ccf756a5214c9855b1782f0eb30f9566de2384f034af48f360405160405180910390a250565b60008084841115839015156145aa576040517f08c379a00000000000000000000000000000000000000000000000000000000081526004018080602001828103825283818151815260200191508051906020019080838360005b8381101561456f578082015181840152602081019050614554565b50505050905090810190601f16801561459c5780820380516001836020036101000a031916815260200191505b509250505060405180910390fd5b508385039050809150509392505050565b80600073ffffffffffffffffffffffffffffffffffffffff168173ffffffffffffffffffffffffffffffffffffffff1614151515614687576040517f08c379a00000000000000000000000000000000000000000000000000000000081526004018080602001828103825260218152602001807f46756e6374696f6e2072657175697265732061206e6f6e2d302061646472657381526020017f730000000000000000000000000000000000000000000000000000000000000081525060400191505060405180910390fd5b82826146938282613d90565b15151561472e576040517f08c379a00000000000000000000000000000000000000000000000000000000081526004018080602001828103825260268152602001807f46756e6374696f6e207265717569726573206164647265737320746f2068617681526020017f6520726f6c65000000000000000000000000000000000000000000000000000081525060400191505060405180910390fd5b60008560000160008673ffffffffffffffffffffffffffffffffffffffff1673ffffffffffffffffffffffffffffffffffffffff16815260200190815260200160002060006101000a81548160ff0219169083151502179055505050505050565b80600073ffffffffffffffffffffffffffffffffffffffff168173ffffffffffffffffffffffffffffffffffffffff161415151561485b576040517f08c379a00000000000000000000000000000000000000000000000000000000081526004018080602001828103825260218152602001807f46756e6374696f6e2072657175697265732061206e6f6e2d302061646472657381526020017f730000000000000000000000000000000000000000000000000000000000000081525060400191505060405180910390fd5b82826148678282613d90565b151515614902576040517f08c379a00000000000000000000000000000000000000000000000000000000081526004018080602001828103825260268152602001807f46756e6374696f6e207265717569726573206164647265737320746f2068617681526020017f6520726f6c65000000000000000000000000000000000000000000000000000081525060400191505060405180910390fd5b60018560000160008673ffffffffffffffffffffffffffffffffffffffff1673ffffffffffffffffffffffffffffffffffffffff16815260200190815260200160002060006101000a81548160ff0219169083151502179055505050505050565b6000806000841183901515614a13576040517f08c379a00000000000000000000000000000000000000000000000000000000081526004018080602001828103825283818151815260200191508051906020019080838360005b838110156149d85780820151818401526020810190506149bd565b50505050905090810190601f168015614a055780820380516001836020036101000a031916815260200191505b509250505060405180910390fd5b508385811515614a1f57fe5b049050809150509392505050565b828054600181600116156101000203166002900490600052602060002090601f016020900481019282601f10614a6e57805160ff1916838001178555614a9c565b82800160010185558215614a9c579182015b82811115614a9b578251825591602001919060010190614a80565b5b509050614aa99190614aad565b5090565b614acf91905b80821115614acb576000816000905550600101614ab3565b5090565b905600a165627a7a7230582067b495121b2a8c1ce7359c23f1cbd3c30d993b3f835bcde5ad2ec173275f9dfd0029",
  "source": "pragma solidity ^0.4.24;\n\nimport '../musiccore/Ownable.sol';\nimport '../musicaccesscontrol/MusicianRole.sol';\nimport '../musicaccesscontrol/ProducerRole.sol';\nimport '../musicaccesscontrol/DistributorRole.sol';\nimport '../musicaccesscontrol/ListenerRole.sol';\nimport 'node_modules/openzeppelin-solidity/contracts/math/SafeMath.sol';\n\n// Define a contract 'Supplychain'\ncontract SupplyChain is Ownable, MusicianRole, ProducerRole, DistributorRole, ListenerRole {\n\n/*=======================================================*/\n/*                  CONTRACT VARIABLES                   */\n/*=======================================================*/\n\n  using SafeMath for uint;\n\n  // Define 'owner'\n  address owner;\n\n  // Define a variable called 'upc' for Universal Product Code (UPC)\n  uint upc;\n\n  // Define a variable called 'sku' for Stock Keeping Unit (SKU)\n  uint sku;\n\n  // Define a public mapping 'songs' that maps the UPC to an Song.\n  mapping (uint => Song) songs;\n\n  // Define a public mapping 'songsHistory' that maps the UPC to an array of TxHash,\n  // that track its journey through the supply chain -- to be sent from DApp.\n  mapping (uint => string[]) songsHistory;\n\n  // Define enum 'State' with the following values:\n  enum State\n  {\n    Unwritten,      // 0\n    MelodyWritten,  // 1\n    LyricsWritten,  // 2\n    Played,         // 3\n    Recorded,       // 4\n    Approved,       // 5\n    Released,       // 6\n    Received,       // 7\n    Purchased       // 8\n  }\n\n  State constant defaultState = State.Unwritten;\n\n  // Define a struct 'Song' with the following fields:\n  struct Song {\n    uint    sku;  // Stock Keeping Unit (SKU)\n    uint    upc; // Universal Product Code (UPC), generated by the Musician, goes on the song, can be verified by the Listener\n    address ownerID;  // Metamask-Ethereum address of the current owner as the product moves through 8 stages\n    address originMusicianID; // Metamask-Ethereum address of the Musician\n    string  originMusicianName; // Musician Name\n    string  originMusicianInformation;  // Musician Information\n    uint    songID;  // Product ID potentially a combination of upc + sku\n    string  songNotes; // Product Notes\n    uint    songPrice; // Product Price\n    State   songState;  // Product State as represented in the enum above\n    uint    musicianShares; // How many shares of the song revenue the musician owns\n    uint    producerShares; // How many shares of the song revenue the producer owns\n    uint    distributorShares; // How many shares of the song revenue the distributor owns\n    address producerID; // Metamask-Ethereum address of the Retailer\n    address distributorID;  // Metamask-Ethereum address of the Distributor\n    address listenerID; // Metamask-Ethereum address of the Consumer\n  }\n\n  // Define 8 events with the same 8 state values and accept 'upc' as input argument\n  event MelodyWritten(uint upc);\n  event LyricsWritten(uint upc);\n  event Played(uint upc);\n  event Recorded(uint upc);\n  event Approved(uint upc);\n  event Released(uint upc);\n  event Received(uint upc);\n  event Purchased(uint upc);\n\n/*=======================================================*/\n/*                  CONTRACT MODIFIERS                   */\n/*=======================================================*/\n\n  // Define a modifer that checks to see if msg.sender == owner of the contract\n  modifier onlyOwner() {\n    require(msg.sender == owner, 'Only the owner of the contract can call this function');\n    _;\n  }\n\n  // Define a modifer that verifies the Caller\n  modifier verifyCaller (address _address) {\n    require(msg.sender == _address, 'Caller is not verified to call this function');\n    _;\n  }\n\n  // Define a modifier that checks if the paid amount is sufficient to cover the price\n  modifier paidEnough(uint _price) {\n    require(msg.value >= _price, 'Caller has not paid a sufficient amount to recieve the song');\n    _;\n  }\n\n  // Define a modifier that checks the price and refunds the remaining balance\n  modifier checkValue(uint _upc) {\n    _;\n    uint _price = songs[_upc].songPrice;\n    uint amountToReturn = msg.value - _price;\n    songs[_upc].listenerID.transfer(amountToReturn);\n  }\n\n  modifier sharesValidation(uint _musicianShares, uint _producerShares, uint _distributorShares) {\n    require(_musicianShares >= 0, 'Cannot have negative Musician Shares');\n    require(_musicianShares <= 100, 'Cannot have over 100 Musician Shares');\n    require(_producerShares >= 0, 'Cannot have negative Producer Shares');\n    require(_producerShares <= 100, 'Cannot have over 100 Producer Shares');\n    require(_distributorShares >= 0, 'Cannot have negative Distributor Shares');\n    require(_distributorShares <= 100, 'Cannot have over 100 Distributor Shares');\n    require(_musicianShares.add(_producerShares).add(_distributorShares) == 100, 'Total number of ownership shares must be 100');\n    _;\n  }\n\n  // Define a modifier that checks if an song.state of a upc is Harvested\n  modifier isUnwritten(uint _upc) {\n    require(songs[_upc].songState == State.Unwritten, 'This function requires the song to not have been written');\n    _;\n  }\n\n  // Define a modifier that checks if an song.state of a upc is Harvested\n  modifier melodyIsWritten(uint _upc) {\n    require(songs[_upc].songState == State.MelodyWritten, 'This function requires the melody to have been written (by the Musician)');\n    _;\n  }\n\n  // Define a modifier that checks if an song.state of a upc is Processed\n  modifier lyricsAreWritten(uint _upc) {\n    require(songs[_upc].songState == State.LyricsWritten, 'This function requires the lyrics to have been written (by the Musician)');\n    _;\n  }\n\n  // Define a modifier that checks if an song.state of a upc is Packed\n  modifier isPlayed(uint _upc) {\n    require(songs[_upc].songState == State.Played, 'This function requires the song to have been played (by the Musician)');\n    _;\n  }\n\n  // Define a modifier that checks if an song.state of a upc is ForSale\n  modifier isRecorded(uint _upc) {\n    require(songs[_upc].songState == State.Recorded, 'This function requires the song to have been recorded (by the Producer)');\n    _;\n  }\n\n  // Define a modifier that checks if an song.state of a upc is Sold\n  modifier isApproved(uint _upc) {\n    require(songs[_upc].songState == State.Approved, 'This function requires the song to have been approved (by the Musician)');\n    _;\n  }\n\n  // Define a modifier that checks if an song.state of a upc is Shipped\n  modifier isReleased(uint _upc) {\n    require(songs[_upc].songState == State.Released, 'This function requires the song to have been released (by the Producer)');\n    _;\n  }\n\n  // Define a modifier that checks if an song.state of a upc is Received\n  modifier isReceived(uint _upc) {\n    require(songs[_upc].songState == State.Received, 'This function requires the song to have been received (by the Distributor)');\n    _;\n  }\n\n  // Define a modifier that checks if an song.state of a upc is Purchased\n  modifier isPurchased(uint _upc) {\n    require(songs[_upc].songState == State.Purchased, 'This function requires the song to have been purchased (by the Listener)');\n    _;\n  }\n\n/*=======================================================*/\n/*                 CONTRACT CONSTRUCTOR                  */\n/*=======================================================*/\n\n  // In the constructor set 'owner' to the address that instantiated the contract\n  // and set 'sku' to 1\n  // and set 'upc' to 1\n  constructor() public payable {\n    owner = msg.sender;\n    sku = 1;\n    upc = 1;\n  }\n\n/*=======================================================*/\n/*                  CONTRACT FUNCTIONS                   */\n/*=======================================================*/\n\n  // Define a function 'kill' if required\n  function kill() public {\n    if (msg.sender == owner) {\n      selfdestruct(owner);\n    }\n  }\n\n  // Define a function 'writeMelody' that allows a Musician to mark a song 'MelodyWritten'\n  function writeMelody(\n              uint _upc,\n              address _originMusicianID,\n              string _originMusicianName,\n              string _originMusicianInformation,\n              string _songNotes\n            )\n            public\n            isUnwritten(_upc)\n            onlyMusician\n  {\n\n    songs[_upc].sku = sku;\n    songs[_upc].upc = _upc;\n    songs[_upc].ownerID = _originMusicianID;\n    songs[_upc].originMusicianID = _originMusicianID;\n    songs[_upc].originMusicianName = _originMusicianName;\n    songs[_upc].originMusicianInformation = _originMusicianInformation;\n    songs[_upc].musicianShares = 100;\n    songs[_upc].producerShares = 0;\n    songs[_upc].distributorShares = 0;\n    songs[_upc].songID = _upc + sku;\n    songs[_upc].songNotes = _songNotes;\n    songs[_upc].songState = State.MelodyWritten;\n\n    // Increment sku\n    sku = sku + 1;\n\n    emit MelodyWritten(_upc);\n  }\n\n  // Define a function 'writeLyrics' that allows a  to mark a song 'LyricsWritten'\n  function writeLyrics(\n              uint _upc\n            )\n            public\n            melodyIsWritten(_upc)\n            verifyCaller(songs[_upc].ownerID)\n            onlyMusician\n  {\n    songs[_upc].songState = State.LyricsWritten;\n    emit LyricsWritten(_upc);\n  }\n\n  // Define a function 'playTracks' that allows a Musician to mark a song 'Played'\n  function playTracks(\n              uint _upc,\n              uint _producerShares\n            )\n            public\n            lyricsAreWritten(_upc)\n            verifyCaller(songs[_upc].ownerID)\n            onlyMusician\n            sharesValidation(songs[_upc].musicianShares.sub(_producerShares), songs[_upc].producerShares.add(_producerShares), 0)\n  {\n    songs[_upc].musicianShares = songs[_upc].musicianShares.sub(_producerShares);\n    songs[_upc].producerShares = songs[_upc].producerShares.add(_producerShares);\n    songs[_upc].songState = State.Played;\n    emit Played(_upc);\n  }\n\n  // Define a function 'recordTracks' that allows a Producer to mark a song 'Recorded'\n  function recordTracks(\n                uint _upc\n              )\n              public\n              isPlayed(_upc)\n              onlyProducer\n  {\n    songs[_upc].producerID = msg.sender;\n    songs[_upc].songState = State.Recorded;\n    emit Recorded(_upc);\n  }\n\n  // Define a function 'approveTracks' that allows a Musician to mark a song 'Approved'\n  function approveTracks(\n                uint _upc\n              )\n              public\n              isRecorded(_upc)\n              verifyCaller(songs[_upc].ownerID)\n              onlyMusician\n  {\n    songs[_upc].ownerID = songs[_upc].producerID;\n    songs[_upc].songState = State.Approved;\n    emit Approved(_upc);\n  }\n\n  // Define a function 'releaseSong' that allows a Producer to mark a song 'Released'\n  function releaseSong(\n                uint _upc,\n                uint _songPrice,\n                uint _distributorShares\n              )\n              public\n              isApproved(_upc)\n              verifyCaller(songs[_upc].ownerID)\n              onlyProducer\n              sharesValidation(songs[_upc].musicianShares, songs[_upc].producerShares.sub(_distributorShares), songs[_upc].distributorShares.add(_distributorShares))\n  {\n    songs[_upc].producerShares = songs[_upc].producerShares.sub(_distributorShares);\n    songs[_upc].distributorShares = songs[_upc].distributorShares.add(_distributorShares);\n    songs[_upc].songPrice = _songPrice;\n    songs[_upc].songState = State.Released;\n    emit Released(_upc);\n  }\n\n  // Define a function 'receiveSong' that allows a Distributor to mark a song 'Received'\n  function receiveSong(\n                uint _upc\n              )\n              public\n              isReleased(_upc)\n              onlyDistributor\n  {\n    songs[_upc].ownerID = msg.sender;\n    songs[_upc].distributorID = msg.sender;\n    songs[_upc].songState = State.Received;\n    emit Received(_upc);\n  }\n\n  // Define a function 'purchaseSong' that allows the Listener to mark a song 'Purchased'\n  // Use the above defined modifiers to check if the song is available for sale, if the buyer has paid enough,\n  // and any excess ether sent is refunded back to the buyer\n  function purchaseSong(\n                uint _upc\n              )\n              public\n              payable\n              isReceived(_upc)\n              onlyListener\n              paidEnough(songs[_upc].songPrice)\n              checkValue(_upc)\n  {\n    songs[_upc].ownerID = msg.sender;\n    songs[_upc].listenerID = msg.sender;\n    songs[_upc].songState = State.Purchased;\n\n    songs[_upc].originMusicianID.transfer(songs[_upc].songPrice.mul(songs[_upc].musicianShares).div(100));\n    songs[_upc].producerID.transfer(songs[_upc].songPrice.mul(songs[_upc].producerShares).div(100));\n    songs[_upc].distributorID.transfer(songs[_upc].songPrice.mul(songs[_upc].distributorShares).div(100));\n\n    emit Purchased(_upc);\n  }\n\n  // Define a function 'fetchSongBufferOne' that fetches the data\n  function fetchSongBufferOne(\n              uint _upc\n            )\n            public\n            view\n            returns (\n              uint    songSKU,\n              uint    songUPC,\n              address ownerID,\n              address originMusicianID,\n              string memory originMusicianName,\n              string memory originMusicianInformation\n            )\n  {\n    songSKU = songs[_upc].sku;\n    songUPC = songs[_upc].upc;\n    ownerID = songs[_upc].ownerID;\n    originMusicianID = songs[_upc].originMusicianID;\n    originMusicianName = songs[_upc].originMusicianName;\n    originMusicianInformation = songs[_upc].originMusicianInformation;\n\n    return (\n      songSKU,\n      songUPC,\n      ownerID,\n      originMusicianID,\n      originMusicianName,\n      originMusicianInformation\n    );\n  }\n\n  // Define a function 'fetchSongBufferTwo' that fetches the data\n  function fetchSongBufferTwo(\n              uint _upc\n            )\n            public\n            view\n            returns(\n              uint    songSKU,\n              uint    songUPC,\n              uint    songID,\n              string memory songNotes,\n              uint    songPrice,\n              uint    songState,\n              uint    musicianShares,\n              uint    producerShares,\n              uint    distributorShares,\n              address producerID,\n              address distributorID,\n              address listenerID\n            )\n  {\n    songSKU = songs[_upc].sku;\n    songUPC = songs[_upc].upc;\n    songID = songs[_upc].songID;\n    songNotes = songs[_upc].songNotes;\n    songPrice = songs[_upc].songPrice;\n    songState = uint(songs[_upc].songState);\n    musicianShares = songs[_upc].musicianShares;\n    producerShares = songs[_upc].producerShares;\n    distributorShares = songs[_upc].distributorShares;\n    producerID = songs[_upc].producerID;\n    distributorID = songs[_upc].distributorID;\n    listenerID = songs[_upc].listenerID;\n\n    return(\n      songSKU,\n      songUPC,\n      songID,\n      songNotes,\n      songPrice,\n      songState,\n      musicianShares,\n      producerShares,\n      distributorShares,\n      producerID,\n      distributorID,\n      listenerID\n    );\n  }\n}\n",
  "sourcePath": "/Users/Narnia/Desktop/UdacityBlockchainTerm2/nd1309-Project-6b-Example-Template/project-6/contracts/musicbase/SupplyChain.sol",
  "compiler": {
    "name": "solc",
    "version": "0.4.26+commit.4563c3fc.Emscripten.clang"
  },
  "schemaVersion": "3.0.17",
  "updatedAt": "2019-11-16T02:16:03.226Z",
  "networkType": "ethereum",
  "devdoc": {
    "methods": {}
  },
  "userdoc": {
    "methods": {
      "_owner()": {
        "notice": "Look up the address of the owner"
      },
      "isOwner()": {
        "notice": "Check if the calling address is the owner of the contract"
      },
      "renounceOwnership()": {
        "notice": "Define a function to renounce ownerhip"
      },
      "transferOwnership(address)": {
        "notice": "Define a public function to transfer ownership"
      }
    }
  }
}